{
  "contractName": "AggregateV2",
  "abi": [
    {
      "constant": false,
      "inputs": [],
      "name": "initializer",
      "outputs": [],
      "payable": false,
      "stateMutability": "nonpayable",
      "type": "function"
    },
    {
      "constant": true,
      "inputs": [
        {
          "internalType": "string",
          "name": "name",
          "type": "string"
        }
      ],
      "name": "fetchCurrencyMean",
      "outputs": [
        {
          "internalType": "uint256",
          "name": "",
          "type": "uint256"
        },
        {
          "internalType": "uint256",
          "name": "",
          "type": "uint256"
        }
      ],
      "payable": false,
      "stateMutability": "view",
      "type": "function"
    },
    {
      "constant": true,
      "inputs": [
        {
          "internalType": "string",
          "name": "name",
          "type": "string"
        }
      ],
      "name": "fetchCurrencyLen",
      "outputs": [
        {
          "internalType": "uint256",
          "name": "",
          "type": "uint256"
        }
      ],
      "payable": false,
      "stateMutability": "view",
      "type": "function"
    },
    {
      "constant": false,
      "inputs": [
        {
          "internalType": "string",
          "name": "token",
          "type": "string"
        },
        {
          "internalType": "uint256",
          "name": "_wholeNumberPart",
          "type": "uint256"
        },
        {
          "internalType": "uint256",
          "name": "_fractionalPart",
          "type": "uint256"
        },
        {
          "internalType": "uint256",
          "name": "meanWholePart",
          "type": "uint256"
        },
        {
          "internalType": "uint256",
          "name": "meanFracPart",
          "type": "uint256"
        },
        {
          "internalType": "uint256",
          "name": "currLen",
          "type": "uint256"
        }
      ],
      "name": "storeInLedger",
      "outputs": [
        {
          "internalType": "bool",
          "name": "",
          "type": "bool"
        }
      ],
      "payable": false,
      "stateMutability": "nonpayable",
      "type": "function"
    }
  ],
  "bytecode": "0x608060405234801561001057600080fd5b50610989806100206000396000f3fe608060405234801561001057600080fd5b506004361061004c5760003560e01c8063577ea3241461005157806358b0ce81146101275780639ce110d71461022c578063bc3bcdf514610236575b600080fd5b61010a6004803603602081101561006757600080fd5b810190808035906020019064010000000081111561008457600080fd5b82018360208201111561009657600080fd5b803590602001918460018302840111640100000000831117156100b857600080fd5b91908080601f016020809104026020016040519081016040528093929190818152602001838380828437600081840152601f19601f820116905080830192505050505050509192919290505050610305565b604051808381526020018281526020019250505060405180910390f35b610212600480360360c081101561013d57600080fd5b810190808035906020019064010000000081111561015a57600080fd5b82018360208201111561016c57600080fd5b8035906020019184600183028401116401000000008311171561018e57600080fd5b91908080601f016020809104026020016040519081016040528093929190818152602001838380828437600081840152601f19601f82011690508083019250505050505050919291929080359060200190929190803590602001909291908035906020019092919080359060200190929190803590602001909291905050506103e5565b604051808215151515815260200191505060405180910390f35b61023461089e565b005b6102ef6004803603602081101561024c57600080fd5b810190808035906020019064010000000081111561026957600080fd5b82018360208201111561027b57600080fd5b8035906020019184600183028401116401000000008311171561029d57600080fd5b91908080601f016020809104026020016040519081016040528093929190818152602001838380828437600081840152601f19601f8201169050808301925050505050505091929192905050506108e1565b6040518082815260200191505060405180910390f35b6000806000836040518082805190602001908083835b6020831061033e578051825260208201915060208101905060208303925061031b565b6001836020036101000a0380198251168184511680821785525050505050509050019150509081526020016040518091039020546001846040518082805190602001908083835b602083106103a85780518252602082019150602081019050602083039250610385565b6001836020036101000a03801982511681845116808217855250505050505090500191505090815260200160405180910390205491509150915091565b6000836000886040518082805190602001908083835b6020831061041e57805182526020820191506020810190506020830392506103fb565b6001836020036101000a038019825116818451168082178552505050505050905001915050908152602001604051809103902081905550826001886040518082805190602001908083835b6020831061048c5780518252602082019150602081019050602083039250610469565b6001836020036101000a038019825116818451168082178552505050505050905001915050908152602001604051809103902081905550816002886040518082805190602001908083835b602083106104fa57805182526020820191506020810190506020830392506104d7565b6001836020036101000a03801982511681845116808217855250505050505090500191505090815260200160405180910390208190555060018214156106e7576003876040518082805190602001908083835b60208310610570578051825260208201915060208101905060208303925061054d565b6001836020036101000a03801982511681845116808217855250505050505090500191505090815260200160405180910390208690806001815401808255809150509060018203906000526020600020016000909192909190915055506003876040518082805190602001908083835b6020831061060357805182526020820191506020810190506020830392506105e0565b6001836020036101000a038019825116818451168082178552505050505050905001915050908152602001604051809103902085908060018154018082558091505090600182039060005260206000200160009091929091909150555060016005886040518082805190602001908083835b602083106106985780518252602082019150602081019050602083039250610675565b6001836020036101000a038019825116818451168082178552505050505050905001915050908152602001604051809103902060006101000a81548160ff021916908315150217905550610890565b6003876040518082805190602001908083835b6020831061071d57805182526020820191506020810190506020830392506106fa565b6001836020036101000a03801982511681845116808217855250505050505090500191505090815260200160405180910390208690806001815401808255809150509060018203906000526020600020016000909192909190915055506003876040518082805190602001908083835b602083106107b0578051825260208201915060208101905060208303925061078d565b6001836020036101000a038019825116818451168082178552505050505050905001915050908152602001604051809103902085908060018154018082558091505090600182039060005260206000200160009091929091909150555060016005886040518082805190602001908083835b602083106108455780518252602082019150602081019050602083039250610822565b6001836020036101000a038019825116818451168082178552505050505050905001915050908152602001604051809103902060006101000a81548160ff0219169083151502179055505b600190509695505050505050565b33600660006101000a81548173ffffffffffffffffffffffffffffffffffffffff021916908373ffffffffffffffffffffffffffffffffffffffff160217905550565b60006002826040518082805190602001908083835b6020831061091957805182526020820191506020810190506020830392506108f6565b6001836020036101000a038019825116818451168082178552505050505050905001915050908152602001604051809103902054905091905056fea265627a7a7231582042f04fec372f38abf9a2db233191fd0f1f575d55b5336dab0ff378a821dacd5264736f6c63430005100032",
  "source": "pragma solidity 0.5.16;\n\ncontract AggregateV2 {\n\n    mapping(string=>uint) currentMeanWholePart;\n    mapping(string=>uint) currentMeanFractPart;\n    mapping(string=> uint) counterMapping; \n    mapping(string=>uint[]) keyToWholeVal;\n    mapping(string=>uint[]) keyToFracVal;\n    mapping(string=>bool) isActice;\n    address contOwner;\n    function initializer()  public {\n       \n     contOwner= msg.sender;\n}\n    \n\n    function fetchCurrencyMean(string memory name) public view returns(uint, uint)  {\n            return (currentMeanWholePart[name],currentMeanFractPart[name]);\n    }\n\n    function fetchCurrencyLen(string memory name) public view returns(uint)  {\n           return counterMapping[name];\n    }\n\n\n  \n    \n    function storeInLedger(string memory token, uint _wholeNumberPart,uint _fractionalPart,uint meanWholePart,uint meanFracPart, uint currLen) public returns(bool) {\n        \n        currentMeanWholePart[token] =  meanWholePart;\n        currentMeanFractPart[token] =  meanFracPart;\n        counterMapping[token] = currLen;\n        if(currLen == 1) {\n\n             keyToWholeVal[token].push(_wholeNumberPart);\n            keyToWholeVal[token].push(_fractionalPart);\n\n            isActice[token] = true;\n\n        } else  {\n  \n           keyToWholeVal[token].push(_wholeNumberPart);\n           keyToWholeVal[token].push(_fractionalPart);\n           isActice[token] = true;\n\n        }\n    \n        return true;\n        \n    }\n\n\n    \n}\n\n",
  "sourcePath": "/Users/conduent/tempfortoday/FetchCryptoPrice/fetchcryptoprice/contracts/AggregateV2.sol",
  "compiler": {
    "name": "solc",
    "version": "0.5.16+commit.9c3226ce.Emscripten.clang"
  },
  "schemaVersion": "3.3.1",
  "updatedAt": "2021-04-14T07:57:38.738Z",
  "networkType": "ethereum",
  "devdoc": {
    "methods": {}
  },
  "userdoc": {
    "methods": {}
  }
}