{
  "contractName": "Aggregate",
  "abi": [
    {
      "constant": false,
      "inputs": [],
      "name": "initializer",
      "outputs": [],
      "payable": false,
      "stateMutability": "nonpayable",
      "type": "function"
    },
    {
      "constant": true,
      "inputs": [
        {
          "internalType": "string",
          "name": "name",
          "type": "string"
        }
      ],
      "name": "fetchCurrencyMean",
      "outputs": [
        {
          "internalType": "uint256",
          "name": "",
          "type": "uint256"
        },
        {
          "internalType": "uint256",
          "name": "",
          "type": "uint256"
        }
      ],
      "payable": false,
      "stateMutability": "view",
      "type": "function"
    },
    {
      "constant": true,
      "inputs": [
        {
          "internalType": "string",
          "name": "name",
          "type": "string"
        }
      ],
      "name": "fetchCurrencyLen",
      "outputs": [
        {
          "internalType": "uint256",
          "name": "",
          "type": "uint256"
        }
      ],
      "payable": false,
      "stateMutability": "view",
      "type": "function"
    },
    {
      "constant": false,
      "inputs": [
        {
          "internalType": "string",
          "name": "token",
          "type": "string"
        },
        {
          "internalType": "uint256",
          "name": "_wholeNumberPart",
          "type": "uint256"
        },
        {
          "internalType": "uint256",
          "name": "_fractionalPart",
          "type": "uint256"
        },
        {
          "internalType": "uint256",
          "name": "meanWholePart",
          "type": "uint256"
        },
        {
          "internalType": "uint256",
          "name": "meanFracPart",
          "type": "uint256"
        },
        {
          "internalType": "uint256",
          "name": "currLen",
          "type": "uint256"
        }
      ],
      "name": "storeInLedger",
      "outputs": [
        {
          "internalType": "bool",
          "name": "",
          "type": "bool"
        }
      ],
      "payable": false,
      "stateMutability": "nonpayable",
      "type": "function"
    }
  ],
  "bytecode": "0x608060405234801561001057600080fd5b50610948806100206000396000f3fe608060405234801561001057600080fd5b506004361061004c5760003560e01c8063577ea3241461005157806358b0ce81146101275780639ce110d71461022c578063bc3bcdf514610236575b600080fd5b61010a6004803603602081101561006757600080fd5b810190808035906020019064010000000081111561008457600080fd5b82018360208201111561009657600080fd5b803590602001918460018302840111640100000000831117156100b857600080fd5b91908080601f016020809104026020016040519081016040528093929190818152602001838380828437600081840152601f19601f820116905080830192505050505050509192919290505050610305565b604051808381526020018281526020019250505060405180910390f35b610212600480360360c081101561013d57600080fd5b810190808035906020019064010000000081111561015a57600080fd5b82018360208201111561016c57600080fd5b8035906020019184600183028401116401000000008311171561018e57600080fd5b91908080601f016020809104026020016040519081016040528093929190818152602001838380828437600081840152601f19601f82011690508083019250505050505050919291929080359060200190929190803590602001909291908035906020019092919080359060200190929190803590602001909291905050506103e5565b604051808215151515815260200191505060405180910390f35b61023461089e565b005b6102ef6004803603602081101561024c57600080fd5b810190808035906020019064010000000081111561026957600080fd5b82018360208201111561027b57600080fd5b8035906020019184600183028401116401000000008311171561029d57600080fd5b91908080601f016020809104026020016040519081016040528093929190818152602001838380828437600081840152601f19601f8201169050808301925050505050505091929192905050506108a0565b6040518082815260200191505060405180910390f35b6000806001836040518082805190602001908083835b6020831061033e578051825260208201915060208101905060208303925061031b565b6001836020036101000a0380198251168184511680821785525050505050509050019150509081526020016040518091039020546002846040518082805190602001908083835b602083106103a85780518252602082019150602081019050602083039250610385565b6001836020036101000a03801982511681845116808217855250505050505090500191505090815260200160405180910390205491509150915091565b6000836001886040518082805190602001908083835b6020831061041e57805182526020820191506020810190506020830392506103fb565b6001836020036101000a038019825116818451168082178552505050505050905001915050908152602001604051809103902081905550826002886040518082805190602001908083835b6020831061048c5780518252602082019150602081019050602083039250610469565b6001836020036101000a038019825116818451168082178552505050505050905001915050908152602001604051809103902081905550816003886040518082805190602001908083835b602083106104fa57805182526020820191506020810190506020830392506104d7565b6001836020036101000a03801982511681845116808217855250505050505090500191505090815260200160405180910390208190555060018214156106e7576004876040518082805190602001908083835b60208310610570578051825260208201915060208101905060208303925061054d565b6001836020036101000a03801982511681845116808217855250505050505090500191505090815260200160405180910390208690806001815401808255809150509060018203906000526020600020016000909192909190915055506004876040518082805190602001908083835b6020831061060357805182526020820191506020810190506020830392506105e0565b6001836020036101000a038019825116818451168082178552505050505050905001915050908152602001604051809103902085908060018154018082558091505090600182039060005260206000200160009091929091909150555060016006886040518082805190602001908083835b602083106106985780518252602082019150602081019050602083039250610675565b6001836020036101000a038019825116818451168082178552505050505050905001915050908152602001604051809103902060006101000a81548160ff021916908315150217905550610890565b6004876040518082805190602001908083835b6020831061071d57805182526020820191506020810190506020830392506106fa565b6001836020036101000a03801982511681845116808217855250505050505090500191505090815260200160405180910390208690806001815401808255809150509060018203906000526020600020016000909192909190915055506004876040518082805190602001908083835b602083106107b0578051825260208201915060208101905060208303925061078d565b6001836020036101000a038019825116818451168082178552505050505050905001915050908152602001604051809103902085908060018154018082558091505090600182039060005260206000200160009091929091909150555060016006886040518082805190602001908083835b602083106108455780518252602082019150602081019050602083039250610822565b6001836020036101000a038019825116818451168082178552505050505050905001915050908152602001604051809103902060006101000a81548160ff0219169083151502179055505b600190509695505050505050565b565b60006003826040518082805190602001908083835b602083106108d857805182526020820191506020810190506020830392506108b5565b6001836020036101000a038019825116818451168082178552505050505050905001915050908152602001604051809103902054905091905056fea265627a7a72315820d7596ec51e31b725fff48c71238541268e7a2e20b1e58c9d33b759e1f6b2a0bb64736f6c63430005100032",
  "source": "pragma solidity 0.5.16;\n\ncontract Aggregate {\n\n    struct Currency {\n        string code;\n        uint[] wholeNumberPart ; //will be converted into string\n        uint[]  fractionalPart ; //will be converted into string\n      //  string[] valueInUSD; //will be converted into string\n       \n        bool isActive;\n        uint curLen;  \n    }\n\n    mapping(string=>Currency) curMapping; //mapping between token and it's Currency struct\n  //  mapping(string=>uint) currentMean; //most recent mean of the token value in fiat currency(dollar) \n    mapping(string=>uint) currentMeanWholePart;\n    mapping(string=>uint) currentMeanFractPart;\n    mapping(string=> uint) counterMapping; \n    mapping(string=>uint[]) keyToWholeVal;\n    mapping(string=>uint[]) keyToFracVal;\n    mapping(string=>bool) isActice;\n    address contOwner;\n\n    // constructor () public {\n    //     contOwner= msg.sender;\n    //    // currentMeanWholePart[\"eth\"] = 234;\n    //      //currentMeanFractPart[\"eth\"] = 5;\n    //     //counterMapping[\"eth\"] = 1;\n    // }\nfunction initializer()  public {\n       \n     \n}\n\n    function fetchCurrencyMean(string memory name) public view returns(uint, uint)  {\n            return (currentMeanWholePart[name],currentMeanFractPart[name]);\n    }\n\n    function fetchCurrencyLen(string memory name) public view returns(uint)  {\n           return counterMapping[name];\n    }\n\n\n    // function currentMeanCalc(string memory name,uint valInDollar,uint counter) public{\n    \n    function storeInLedger(string memory token, uint _wholeNumberPart,uint _fractionalPart,uint meanWholePart,uint meanFracPart, uint currLen) public returns(bool) {\n        \n        currentMeanWholePart[token] =  meanWholePart;\n        currentMeanFractPart[token] =  meanFracPart;\n        counterMapping[token] = currLen;\n        if(currLen == 1) {\n           \n             //Currency memory curr ;//= Currency(token,wholeNumberPart.push(_wholeNumberPart),fractionalPart.push(_fractionalPart),true,currLen);\n            // curr.code = token;\n          //   curr.wholeNumberPart[1] = _wholeNumberPart;\n            // curr.fractionalPart[1] = _fractionalPart;\n             keyToWholeVal[token].push(_wholeNumberPart);\n            keyToWholeVal[token].push(_fractionalPart);\n            // curr.isActive= true;\n            isActice[token] = true;\n             //curr.curLen = 1;\n           //  curMapping[token] = curr;\n        } else  {\n          //  Currency memory curr = curMapping[token];\n          // curr.wholeNumberPart.push(_wholeNumberPart);\n           //curr.fractionalPart.push(_fractionalPart);\n           keyToWholeVal[token].push(_wholeNumberPart);\n           keyToWholeVal[token].push(_fractionalPart);\n           isActice[token] = true;\n           //curr.isActive= true;\n           //curr.curLen = currLen;\n        }\n        // Currency curr = Currency(token,wholeNumberPart,fractionalPart,true,currLen);\n        // Currency memory curr = curMapping[token];\n        // curr.code =token;\n        // curr.wholeNumberParter[currLen] = wholeNumberPart;\n        // curr.fractionalPart[currLen] = fractionalPart;\n        // curr.isActive= true;\n        // curr.curLen = currLen;\n        //currentMean[token] = curMean;\n     //   counterMapping[token] = currLen;    \n        return true;\n        \n    }\n\n   \n\n    /*\n    \n    function currentMeanCalc(string memory name,uint valInDollar) public{\n\n        if(curMapping[name].curLen == 0) {\n            \n            Currency memory curr = curMapping[name];\n            curr.code =name;\n            curr.valueInUSD = new  uint[](0);\n            curr.isActive =true;\n            curr.curLen =1 ;\n            curMapping[name] = curr;\n            \n            currentMean[name] = valInDollar;\n            \n            counterMapping[name] = 1;\n            \n        } else {\n            \n            require(curMapping[name].isActive == true);\n            counterMapping[name] = counterMapping[name] + 1;\n            currentMean[name] =   (currentMean[name]  + valInDollar) /  counterMapping[name];\n            \n            curMapping[name].valueInUSD.push(valInDollar);\n            curMapping[name].curLen = curMapping[name].curLen + 1;\n            \n        }\n\n    }\n    \n        store and calculate mean\n        \n        fetch value based on the tken and the currency type. //ui\n        call fetchCurrencyLen()  //ui\n        if(0) {\n            calculate mean = valInCurrency //no fetch\n            counterMapping[name] = 1;//no fetch\n            currentMean[name] = valInDollar; //no fetch\n            //ledger side\n            call api passing token, valueinusd(post conv into str),currentmean(post conv into str),and countermapping\n         \n        } else {\n            fetch fetchCurrencyMean() and convert into int\n            fetch fetchCurrencyLen() and convert into int.\n            newval = fetchCurrencyLen()++\n            mean = (mean + currentMean[name])/ newval ;\n            currentMean[name] = mean\n            call api passing token, valueinusd(post conv into str),currentmean(post conv into str),and countermapping\n\n        }\n\n\n\n    */\n \n/*\n    function InitializeStruct(string memory name,uint valInDollar) public{\n\n        if(curMapping[name].isActive == true) {\n\n            curMapping[name].valueInUSD[curMapping[name].curLen + 1] = curMapping[name].valueInUSD[curMapping[name].curLen] +  valInDollar;\n            counterMapping[name] = counterMapping[name] + 1;\n            currentMean[name] =  (currentMean[name] + valInDollar) / counterMapping[name] ;\n        } \n\n    }\n*/\n\n\n\n/*\n     function fetchCounterMapping(string memory name) public view returns(uint)  {\n            //require(curMapping[name].isActive == true);\n            require(curMapping[name].isActive == true);\n            if(counterMapping[name] == 0) {\n            //if(curMapping[name].curLen == 0) { \n             return 0;\n            } else {\n                return 1;\n                // return counterMapping[name];\n            }\n    }\n    */\n\n    \n}\n\n\n//  struct Question\n//     {\n//         bytes32 text;\n//         bytes32[] answerList; // list of answer keys so we can look them up\n//         mapping(bytes32 => Answer) answerStructs; // random access by question key and answer key\n//         // add more non-key fields as needed\n//     }\n\n\n\n//     function addAnswer(bytes32 questionKey, bytes32 answerKey, bytes32 answerText)\n//         // onlyOwner\n//         returns(bool success)\n//     {\n//         questionStructs[questionKey].answerList.push(answerKey);\n//         questionStructs[questionKey].answerStructs[answerKey].text = answerText;\n//         // answer vote will init to 0 without our help\n//         return true;\n//     }",
  "sourcePath": "/Users/conduent/tempfortoday/FetchCryptoPrice/fetchcryptoprice/contracts/Aggregate.sol",
  "compiler": {
    "name": "solc",
    "version": "0.5.16+commit.9c3226ce.Emscripten.clang"
  },
  "schemaVersion": "3.3.1",
  "updatedAt": "2021-04-14T07:38:53.231Z",
  "networkType": "ethereum",
  "devdoc": {
    "methods": {}
  },
  "userdoc": {
    "methods": {}
  }
}