{
  "contractName": "Aggregate",
  "abi": [
    {
      "inputs": [],
      "payable": false,
      "stateMutability": "nonpayable",
      "type": "constructor"
    },
    {
      "constant": true,
      "inputs": [
        {
          "internalType": "string",
          "name": "name",
          "type": "string"
        }
      ],
      "name": "fetchCurrencyMean",
      "outputs": [
        {
          "internalType": "uint256",
          "name": "",
          "type": "uint256"
        },
        {
          "internalType": "uint256",
          "name": "",
          "type": "uint256"
        }
      ],
      "payable": false,
      "stateMutability": "view",
      "type": "function"
    },
    {
      "constant": true,
      "inputs": [
        {
          "internalType": "string",
          "name": "name",
          "type": "string"
        }
      ],
      "name": "fetchCurrencyLen",
      "outputs": [
        {
          "internalType": "uint256",
          "name": "",
          "type": "uint256"
        }
      ],
      "payable": false,
      "stateMutability": "view",
      "type": "function"
    },
    {
      "constant": false,
      "inputs": [
        {
          "internalType": "string",
          "name": "token",
          "type": "string"
        },
        {
          "internalType": "uint256",
          "name": "wholeNumberPart",
          "type": "uint256"
        },
        {
          "internalType": "uint256",
          "name": "fractionalPart",
          "type": "uint256"
        },
        {
          "internalType": "uint256",
          "name": "meanWholePart",
          "type": "uint256"
        },
        {
          "internalType": "uint256",
          "name": "meanFracPart",
          "type": "uint256"
        },
        {
          "internalType": "uint256",
          "name": "currLen",
          "type": "uint256"
        }
      ],
      "name": "storeInLedger",
      "outputs": [
        {
          "internalType": "bool",
          "name": "",
          "type": "bool"
        }
      ],
      "payable": false,
      "stateMutability": "nonpayable",
      "type": "function"
    }
  ],
  "bytecode": "0x608060405234801561001057600080fd5b5033600460006101000a81548173ffffffffffffffffffffffffffffffffffffffff021916908373ffffffffffffffffffffffffffffffffffffffff16021790555060ea600160405180807f657468000000000000000000000000000000000000000000000000000000000081525060030190509081526020016040518091039020819055506005600260405180807f657468000000000000000000000000000000000000000000000000000000000081525060030190509081526020016040518091039020819055506001600360405180807f657468000000000000000000000000000000000000000000000000000000000081525060030190509081526020016040518091039020819055506108c58061012d6000396000f3fe608060405234801561001057600080fd5b50600436106100415760003560e01c8063577ea3241461004657806358b0ce811461011c578063bc3bcdf514610221575b600080fd5b6100ff6004803603602081101561005c57600080fd5b810190808035906020019064010000000081111561007957600080fd5b82018360208201111561008b57600080fd5b803590602001918460018302840111640100000000831117156100ad57600080fd5b91908080601f016020809104026020016040519081016040528093929190818152602001838380828437600081840152601f19601f8201169050808301925050505050505091929192905050506102f0565b604051808381526020018281526020019250505060405180910390f35b610207600480360360c081101561013257600080fd5b810190808035906020019064010000000081111561014f57600080fd5b82018360208201111561016157600080fd5b8035906020019184600183028401116401000000008311171561018357600080fd5b91908080601f016020809104026020016040519081016040528093929190818152602001838380828437600081840152601f19601f82011690508083019250505050505050919291929080359060200190929190803590602001909291908035906020019092919080359060200190929190803590602001909291905050506103d0565b604051808215151515815260200191505060405180910390f35b6102da6004803603602081101561023757600080fd5b810190808035906020019064010000000081111561025457600080fd5b82018360208201111561026657600080fd5b8035906020019184600183028401116401000000008311171561028857600080fd5b91908080601f016020809104026020016040519081016040528093929190818152602001838380828437600081840152601f19601f8201169050808301925050505050505091929192905050506107ec565b6040518082815260200191505060405180910390f35b6000806001836040518082805190602001908083835b602083106103295780518252602082019150602081019050602083039250610306565b6001836020036101000a0380198251168184511680821785525050505050509050019150509081526020016040518091039020546002846040518082805190602001908083835b602083106103935780518252602082019150602081019050602083039250610370565b6001836020036101000a03801982511681845116808217855250505050505090500191505090815260200160405180910390205491509150915091565b6000836001886040518082805190602001908083835b6020831061040957805182526020820191506020810190506020830392506103e6565b6001836020036101000a038019825116818451168082178552505050505050905001915050908152602001604051809103902081905550826002886040518082805190602001908083835b602083106104775780518252602082019150602081019050602083039250610454565b6001836020036101000a038019825116818451168082178552505050505050905001915050908152602001604051809103902081905550816003886040518082805190602001908083835b602083106104e557805182526020820191506020810190506020830392506104c2565b6001836020036101000a03801982511681845116808217855250505050505090500191505090815260200160405180910390208190555061052461085f565b6000886040518082805190602001908083835b6020831061055a5780518252602082019150602081019050602083039250610537565b6001836020036101000a03801982511681845116808217855250505050505090500191505090815260200160405180910390206040518060a0016040529081600082018054600181600116156101000203166002900480601f0160208091040260200160405190810160405280929190818152602001828054600181600116156101000203166002900480156106315780601f1061060657610100808354040283529160200191610631565b820191906000526020600020905b81548152906001019060200180831161061457829003601f168201915b505050505081526020016001820180548060200260200160405190810160405280929190818152602001828054801561068957602002820191906000526020600020905b815481526020019060010190808311610675575b50505050508152602001600282018054806020026020016040519081016040528092919081815260200182805480156106e157602002820191906000526020600020905b8154815260200190600101908083116106cd575b505050505081526020016003820160009054906101000a900460ff161515151581526020016004820154815250509050878160000181905250868160200151848151811061072b57fe5b602002602001018181525050858160400151848151811061074857fe5b602002602001018181525050600181606001901515908115158152505082816080018181525050826003896040518082805190602001908083835b602083106107a65780518252602082019150602081019050602083039250610783565b6001836020036101000a03801982511681845116808217855250505050505090500191505090815260200160405180910390208190555060019150509695505050505050565b60006003826040518082805190602001908083835b602083106108245780518252602082019150602081019050602083039250610801565b6001836020036101000a0380198251168184511680821785525050505050509050019150509081526020016040518091039020549050919050565b6040518060a0016040528060608152602001606081526020016060815260200160001515815260200160008152509056fea265627a7a72315820e68cef2aa898279bab7a7f32ec9eeedb3b458b6503cbf3e09dc5cd8e39eca1c364736f6c63430005100032",
  "source": "pragma solidity 0.5.16;\n\ncontract Aggregate {\n\n    struct Currency {\n        string code;\n        uint[] wholeNumberParter; //will be converted into string\n        uint[] fractionalPart; //will be converted into string\n      //  string[] valueInUSD; //will be converted into string\n      \n        bool isActive;\n        uint curLen;  \n    }\n\n    mapping(string=>Currency) curMapping; //mapping between token and it's Currency struct\n  //  mapping(string=>uint) currentMean; //most recent mean of the token value in fiat currency(dollar) \n    mapping(string=>uint) currentMeanWholePart;\n    mapping(string=>uint) currentMeanFractPart;\n    mapping(string=> uint) counterMapping; \n    address contOwner;\n\n    constructor () public {\n        contOwner= msg.sender;\n        currentMeanWholePart[\"eth\"] = 234;\n         currentMeanFractPart[\"eth\"] = 5;\n        counterMapping[\"eth\"] = 1;\n    }\n    \n\n    function fetchCurrencyMean(string memory name) public view returns(uint, uint)  {\n\n            return (currentMeanWholePart[name],currentMeanFractPart[name]);\n    }\n\n    function fetchCurrencyLen(string memory name) public view returns(uint)  {\n            //require(curMapping[name].isActive == true);\n           /// return curMapping[name].curLen;\n           return counterMapping[name];\n    }\n\n/*\n     function fetchCounterMapping(string memory name) public view returns(uint)  {\n            //require(curMapping[name].isActive == true);\n            require(curMapping[name].isActive == true);\n            if(counterMapping[name] == 0) {\n            //if(curMapping[name].curLen == 0) { \n             return 0;\n            } else {\n                return 1;\n                // return counterMapping[name];\n            }\n    }\n    */\n    \n    // function currentMeanCalc(string memory name,uint valInDollar,uint counter) public{\n    \n    function storeInLedger(string memory token, uint wholeNumberPart,uint fractionalPart,uint meanWholePart,uint meanFracPart, uint currLen) public returns(bool) {\n        \n        currentMeanWholePart[token] =  meanWholePart;\n        currentMeanFractPart[token] =  meanFracPart;\n        counterMapping[token] = currLen;\n        Currency memory curr = curMapping[token];\n        curr.code =token;\n        curr.wholeNumberParter[currLen] = wholeNumberPart;\n        curr.fractionalPart[currLen] = fractionalPart;\n        curr.isActive= true;\n        curr.curLen = currLen;\n        \n        //currentMean[token] = curMean;\n        counterMapping[token] = currLen;    \n\n        return true;\n        \n    }\n    /*\n    \n    function currentMeanCalc(string memory name,uint valInDollar) public{\n\n        if(curMapping[name].curLen == 0) {\n            \n            Currency memory curr = curMapping[name];\n            curr.code =name;\n            curr.valueInUSD = new  uint[](0);\n            curr.isActive =true;\n            curr.curLen =1 ;\n            curMapping[name] = curr;\n            \n            currentMean[name] = valInDollar;\n            \n            counterMapping[name] = 1;\n            \n        } else {\n            \n            require(curMapping[name].isActive == true);\n            counterMapping[name] = counterMapping[name] + 1;\n            currentMean[name] =   (currentMean[name]  + valInDollar) /  counterMapping[name];\n            \n            curMapping[name].valueInUSD.push(valInDollar);\n            curMapping[name].curLen = curMapping[name].curLen + 1;\n            \n        }\n\n    }\n    \n        store and calculate mean\n        \n        fetch value based on the tken and the currency type. //ui\n        call fetchCurrencyLen()  //ui\n        if(0) {\n            calculate mean = valInCurrency //no fetch\n            counterMapping[name] = 1;//no fetch\n            currentMean[name] = valInDollar; //no fetch\n            //ledger side\n            call api passing token, valueinusd(post conv into str),currentmean(post conv into str),and countermapping\n         \n        } else {\n            fetch fetchCurrencyMean() and convert into int\n            fetch fetchCurrencyLen() and convert into int.\n            newval = fetchCurrencyLen()++\n            mean = (mean + currentMean[name])/ newval ;\n            currentMean[name] = mean\n            call api passing token, valueinusd(post conv into str),currentmean(post conv into str),and countermapping\n\n        }\n\n\n\n    */\n \n/*\n    function InitializeStruct(string memory name,uint valInDollar) public{\n\n        if(curMapping[name].isActive == true) {\n\n            curMapping[name].valueInUSD[curMapping[name].curLen + 1] = curMapping[name].valueInUSD[curMapping[name].curLen] +  valInDollar;\n            counterMapping[name] = counterMapping[name] + 1;\n            currentMean[name] =  (currentMean[name] + valInDollar) / counterMapping[name] ;\n        } \n\n    }\n*/\n\n\n\n    \n}",
  "sourcePath": "/Users/conduent/tempfortoday/FetchCryptoPrice/fetchcryptoprice/contracts/Aggregate.sol",
  "compiler": {
    "name": "solc",
    "version": "0.5.16+commit.9c3226ce.Emscripten.clang"
  },
  "schemaVersion": "3.3.1",
  "updatedAt": "2021-04-13T10:33:13.220Z",
  "networkType": "ethereum",
  "devdoc": {
    "methods": {}
  },
  "userdoc": {
    "methods": {}
  }
}