{
  "contractName": "Aggregate",
  "abi": [
    {
      "inputs": [],
      "payable": false,
      "stateMutability": "nonpayable",
      "type": "constructor"
    },
    {
      "constant": false,
      "inputs": [
        {
          "internalType": "string",
          "name": "name",
          "type": "string"
        }
      ],
      "name": "fetchCurrencyMean",
      "outputs": [
        {
          "internalType": "uint256",
          "name": "",
          "type": "uint256"
        }
      ],
      "payable": false,
      "stateMutability": "nonpayable",
      "type": "function"
    },
    {
      "constant": false,
      "inputs": [
        {
          "internalType": "string",
          "name": "name",
          "type": "string"
        },
        {
          "internalType": "uint256",
          "name": "valInDollar",
          "type": "uint256"
        }
      ],
      "name": "currentMeanCalc",
      "outputs": [],
      "payable": false,
      "stateMutability": "nonpayable",
      "type": "function"
    }
  ],
  "bytecode": "0x608060405234801561001057600080fd5b5033600360006101000a81548173ffffffffffffffffffffffffffffffffffffffff021916908373ffffffffffffffffffffffffffffffffffffffff160217905550610c6a806100616000396000f3fe608060405234801561001057600080fd5b50600436106100365760003560e01c8063577ea3241461003b5780638c5130361461010a575b600080fd5b6100f46004803603602081101561005157600080fd5b810190808035906020019064010000000081111561006e57600080fd5b82018360208201111561008057600080fd5b803590602001918460018302840111640100000000831117156100a257600080fd5b91908080601f016020809104026020016040519081016040528093929190818152602001838380828437600081840152601f19601f8201169050808301925050505050505091929192905050506101cf565b6040518082815260200191505060405180910390f35b6101cd6004803603604081101561012057600080fd5b810190808035906020019064010000000081111561013d57600080fd5b82018360208201111561014f57600080fd5b8035906020019184600183028401116401000000008311171561017157600080fd5b91908080601f016020809104026020016040519081016040528093929190818152602001838380828437600081840152601f19601f820116905080830192505050505050509192919290803590602001909291905050506102cc565b005b6000600115156000836040518082805190602001908083835b6020831061020b57805182526020820191506020810190506020830392506101e8565b6001836020036101000a038019825116818451168082178552505050505050905001915050908152602001604051809103902060020160009054906101000a900460ff1615151461025b57600080fd5b6001826040518082805190602001908083835b60208310610291578051825260208201915060208101905060208303925061026e565b6001836020036101000a0380198251168184511680821785525050505050509050019150509081526020016040518091039020549050919050565b600080836040518082805190602001908083835b6020831061030357805182526020820191506020810190506020830392506102e0565b6001836020036101000a03801982511681845116808217855250505050505090500191505090815260200160405180910390206003015414156106ef57610348610b19565b6000836040518082805190602001908083835b6020831061037e578051825260208201915060208101905060208303925061035b565b6001836020036101000a0380198251168184511680821785525050505050509050019150509081526020016040518091039020604051806080016040529081600082018054600181600116156101000203166002900480601f0160208091040260200160405190810160405280929190818152602001828054600181600116156101000203166002900480156104555780601f1061042a57610100808354040283529160200191610455565b820191906000526020600020905b81548152906001019060200180831161043857829003601f168201915b50505050508152602001600182018054806020026020016040519081016040528092919081815260200182805480156104ad57602002820191906000526020600020905b815481526020019060010190808311610499575b505050505081526020016002820160009054906101000a900460ff16151515158152602001600382015481525050905082816000018190525060006040519080825280602002602001820160405280156105165781602001602082028038833980820191505090505b50816020018190525060018160400190151590811515815250506001816060018181525050806000846040518082805190602001908083835b60208310610572578051825260208201915060208101905060208303925061054f565b6001836020036101000a038019825116818451168082178552505050505050905001915050908152602001604051809103902060008201518160000190805190602001906105c1929190610b43565b5060208201518160010190805190602001906105de929190610bc3565b5060408201518160020160006101000a81548160ff02191690831515021790555060608201518160030155905050816001846040518082805190602001908083835b602083106106435780518252602082019150602081019050602083039250610620565b6001836020036101000a03801982511681845116808217855250505050505090500191505090815260200160405180910390208190555060016002846040518082805190602001908083835b602083106106b2578051825260208201915060208101905060208303925061068f565b6001836020036101000a03801982511681845116808217855250505050505090500191505090815260200160405180910390208190555050610b15565b600115156000836040518082805190602001908083835b602083106107295780518252602082019150602081019050602083039250610706565b6001836020036101000a038019825116818451168082178552505050505050905001915050908152602001604051809103902060020160009054906101000a900460ff1615151461077957600080fd5b60016002836040518082805190602001908083835b602083106107b1578051825260208201915060208101905060208303925061078e565b6001836020036101000a038019825116818451168082178552505050505050905001915050908152602001604051809103902054016002836040518082805190602001908083835b6020831061081c57805182526020820191506020810190506020830392506107f9565b6001836020036101000a0380198251168184511680821785525050505050509050019150509081526020016040518091039020819055506002826040518082805190602001908083835b602083106108895780518252602082019150602081019050602083039250610866565b6001836020036101000a038019825116818451168082178552505050505050905001915050908152602001604051809103902054816001846040518082805190602001908083835b602083106108f457805182526020820191506020810190506020830392506108d1565b6001836020036101000a038019825116818451168082178552505050505050905001915050908152602001604051809103902054018161093057fe5b046001836040518082805190602001908083835b602083106109675780518252602082019150602081019050602083039250610944565b6001836020036101000a0380198251168184511680821785525050505050509050019150509081526020016040518091039020819055506000826040518082805190602001908083835b602083106109d457805182526020820191506020810190506020830392506109b1565b6001836020036101000a038019825116818451168082178552505050505050905001915050908152602001604051809103902060010181908060018154018082558091505090600182039060005260206000200160009091929091909150555060016000836040518082805190602001908083835b60208310610a6c5780518252602082019150602081019050602083039250610a49565b6001836020036101000a038019825116818451168082178552505050505050905001915050908152602001604051809103902060030154016000836040518082805190602001908083835b60208310610ada5780518252602082019150602081019050602083039250610ab7565b6001836020036101000a0380198251168184511680821785525050505050509050019150509081526020016040518091039020600301819055505b5050565b60405180608001604052806060815260200160608152602001600015158152602001600081525090565b828054600181600116156101000203166002900490600052602060002090601f016020900481019282601f10610b8457805160ff1916838001178555610bb2565b82800160010185558215610bb2579182015b82811115610bb1578251825591602001919060010190610b96565b5b509050610bbf9190610c10565b5090565b828054828255906000526020600020908101928215610bff579160200282015b82811115610bfe578251825591602001919060010190610be3565b5b509050610c0c9190610c10565b5090565b610c3291905b80821115610c2e576000816000905550600101610c16565b5090565b9056fea265627a7a72315820b12cd9f3d6389b1f36eef8273012ce9b21105340e12d8f2c66e1fff31c325b7364736f6c63430005100032",
  "source": "pragma solidity 0.5.16;\n\ncontract Aggregate {\n\n    struct Currency {\n        string code;\n        uint[] valueInUSD;\n        bool isActive;\n        uint curLen;\n    }\n\n    mapping(string=>Currency) curMapping;\n    mapping(string=>uint) currentMean;\n    mapping(string=> uint) counterMapping;\n    address contOwner;\n\n    constructor () public {\n        contOwner= msg.sender;\n    }\n\n    function fetchCurrencyMean(string memory name) public returns(uint)  {\n         \n            require(curMapping[name].isActive == true);\n            return currentMean[name];\n    }\n\n    function currentMeanCalc(string memory name,uint valInDollar) public{\n\n        if(curMapping[name].curLen == 0) {\n            \n            Currency memory curr = curMapping[name];\n            curr.code =name;\n            curr.valueInUSD = new  uint[](0);\n            curr.isActive =true;\n            curr.curLen =1 ;\n            curMapping[name] = curr;\n            \n            currentMean[name] = valInDollar;\n            \n            counterMapping[name] = 1;\n            \n        } else {\n            \n            require(curMapping[name].isActive == true);\n            counterMapping[name] = counterMapping[name] + 1;\n            currentMean[name] =   (currentMean[name]  + valInDollar) /  counterMapping[name];\n            \n            curMapping[name].valueInUSD.push(valInDollar);\n            curMapping[name].curLen = curMapping[name].curLen + 1;\n            \n        }\n\n    }\n    \n \n/*\n    function InitializeStruct(string memory name,uint valInDollar) public{\n\n        if(curMapping[name].isActive == true) {\n\n            curMapping[name].valueInUSD[curMapping[name].curLen + 1] = curMapping[name].valueInUSD[curMapping[name].curLen] +  valInDollar;\n            counterMapping[name] = counterMapping[name] + 1;\n            currentMean[name] =  (currentMean[name] + valInDollar) / counterMapping[name] ;\n        } \n\n    }\n*/\n\n\n\n    \n}",
  "sourcePath": "/Users/conduent/test/fetchcryptoprice/contracts/Aggregate.sol",
  "compiler": {
    "name": "solc",
    "version": "0.5.16+commit.9c3226ce.Emscripten.clang"
  },
  "schemaVersion": "3.3.1",
  "updatedAt": "2021-04-10T07:18:31.248Z",
  "networkType": "ethereum",
  "devdoc": {
    "methods": {}
  },
  "userdoc": {
    "methods": {}
  }
}